:020000040800F2
:1000000028080020B5010008352B000875250008D8
:10001000312B0008710200080D30000800000000BC
:100020000000000000000000000000003D2B000860
:100030008D02000800000000392B0008412B000849
:10004000CF010008CF010008CF010008CF01000850
:10005000CF010008CF010008CF010008CF01000840
:10006000CF010008CF010008CF010008CF01000830
:10007000CF010008CF0100087502000881020008C6
:10008000CF010008CF010008CF010008CF01000810
:10009000CF010008CF010008CF010008CF01000800
:1000A000CF010008CF010008CF010008CF010008F0
:1000B000CF010008CF010008CF010008CF010008E0
:1000C000CF010008CF010008CF010008CF010008D0
:1000D000CF01000801300008CF010008CF0100085F
:1000E000CF010008CF010008CF01000800F002F89E
:1000F00000F050F814A696E8000CB244B344DA4578
:1001000001D100F047F8BAE80F000FA696E83000DA
:10011000A5EB040504EB0607AAEB0704A7F101070A
:100120004FEA15154FEA3414A4F10104AC4201D38F
:1001300000F030F813F0010F18BFFB1A43F0010371
:1001400000F001F8DBE71847683000008830000055
:10015000103A24BF78C878C1FAD8520724BF30C8F3
:1001600030C144BF04680C60704700007047000055
:100170000023002400250026103A28BF78C1FBD8B0
:10018000520728BF30C148BF0B6070471FB51FBD65
:1001900010B510BD00F031F81146FFF7F7FF02F07F
:1001A00037FF00F04FF803B4FFF7F2FF03BC00F095
:1001B00057F800000948804709480047FEE7FEE776
:1001C000FEE7FEE7FEE7FEE7FEE7FEE7FEE7FEE707
:1001D00004480549054A064B70470000452B0008B6
:1001E000ED00000828020020280800202804002034
:1001F00028040020704770477047754600F02CF8BF
:10020000AE4605006946534620F00700854618B003
:1002100020B5FFF7DDFFBDE820404FF000064FF0AE
:1002200000074FF000084FF0000BAC46ACE8C009E7
:10023000ACE8C009ACE8C009ACE8C00921F007018E
:100240008D46704710B50446AFF300802046BDE8E8
:100250001040FFF7A8BF00000048704710000020C2
:1002600001491820ABBEFEE72600020070470000DF
:10027000FEE7000040F2C000C2F2000000F08EB8BD
:1002800040F27C00C2F2000000F088B87047000025
:10029000EFF3108072B600BFFEE70000014690F851
:1002A0002100022816D10868D1E90FC3026822F0A4
:1002B0000E020260026822F001020260012000FAD0
:1002C00003F2CCF8042081F821000020002281F8FC
:1002D00020207047042088630120002281F820201C
:1002E0007047000090F82110022923D1026840F2E3
:1002F000040C1168C4F2020C21F00E0111601368A5
:100300002F21C4F202018A4223F00103136015DD9C
:100310003023C4F202039A421CD04423C4F20203E5
:100320009A421BD05823C4F202039A421CD14FF4C4
:10033000803321E004218163012070470823C4F247
:1003400002039A420ED01C23C4F202039A420BD13C
:10035000102311E04FF480730EE000BF4FF4805380
:100360000AE000BF012307E00CF168014FF0807341
:100370008A4208BF4FF480130121CCF8003080F886
:100380002110416B0022002980F8202004BF0020AA
:10039000704780B58847002080BD000010B5D0E9C7
:1003A0000FCE0168DCF800300A6823FA0EF35C0710
:1003B0002AD512F0040427D00A68920603D40A68EA
:1003C00022F004020A602F22C4F20202914240F29B
:1003D0000402C4F202025BDD3023C4F2020399423C
:1003E00072D04423C4F20203994273D05823C4F25A
:1003F0000203994240F07A804FF480231360C16A6F
:10040000002940F098806FE09C0727D512F0020485
:1004100024D00A68920606D40A6822F00A020A600A
:10042000012280F821202F22C4F20202914240F2E0
:100430000402C4F202023BDD3023C4F202039942FB
:1004400060D04423C4F2020399425FD05823C4F21F
:100450000203994260D14FF4003365E01B0743D596
:1004600012F0080208BF10BD0A6822F00E020A60EE
:10047000012101FA0EF2CCF80420816380F82110EA
:10048000016B0022002980F8202054D12CE000BF0D
:100490000823C4F20203994222D01C23C4F20203AF
:1004A000994223D140231360C16A002943D11BE044
:1004B0000823C4F2020399422CD01C23C4F2020385
:1004C000994229D120232FE04FF480631360C16A41
:1004D00089BB09E04FF480431360C16A59BB03E054
:1004E00004231360C16A31BB10BD00BF02F1680470
:1004F0004FF08063A14208BF4FF480031360C16ACC
:10050000C9B9F1E74FF400730EE000BF4FF4005398
:100510000AE000BF022307E002F168044FF0007315
:10052000A14208BF4FF400131360816A0022002922
:1005300080F82020D8D0BDE81040084701460028A8
:100540004FF0010008BF70472DE9F043D1F800C01B
:100550004FF6F873CBF6FD734CF6CD426344CCF600
:10056000CC42A3FB02236FF0030202EA93020023B2
:10057000C4F2020301F10C08C1E90F320222D1E9F1
:10058000019E98E8F00181F82120DCF8002043F674
:10059000F0739A4342EA090242EA0E0222432A43D6
:1005A00032433A4342EA0802CCF8002000228A6330
:1005B00081F8210081F820200020BDE8F043704739
:1005C00090F820C0BCF1010F04BF02207047F0B5C5
:1005D0004FF0010E80F820E090F821C0BCF1010F2F
:1005E00026D14FF0020C80F821C04FF0000CC0F86B
:1005F00038C0D0E900C4C56AC66BDCF80070102CA6
:1006000027F00107CCF80070006C0EFA00F0706063
:100610000846CCF8043004BF10460A46CCF808005F
:10062000CCF80C20DCF8000045B140F00E000DE0E5
:10063000002180F820100220F0BD00BF20F004004F
:10064000CCF80000DCF8000040F00A00CCF8000014
:10065000DCF8000040F00100CCF800000020F0BD04
:100660002DE9F04F82B00E68002E00F0FD8041F2BF
:100670000042C4F20102042340F2004E904208BF3F
:1006800003234FF6FF7CC4F2010E009300240123E4
:10069000C1F2100C4FF0000A4FF000094BE000BF10
:1006A00041F20002C4F20102009F904208BF0227FB
:1006B00004F00C030F229A402BEA020207FA03F31C
:1006C0004FEA9A051A4346F825204E6840F20C4539
:1006D000F202DEF8082054BF22EA080242EA0802C9
:1006E000C4F20105CEF808202A68B30254BF22EAFA
:1006F000080242EA08022A60B303DEF8042054BF6D
:1007000022EA080242EA0802F303CEF80420DEF8E7
:1007100000204FF0010354BF22EA080242EA080217
:10072000CEF800200E680AF1010A36FA0AF204F146
:10073000040400F0998003FA0AFB16EA0B08F1D0D2
:100740004E68664512DC122E56D8DFE806F0350BEF
:100750004D4955555555555555555555555555456D
:10076000510000BFD1F80C9046E000BF4FF6FF7279
:10077000C1F2210296420FDC0022C1F21102964220
:100780001AD00022C1F21202964215D00022C1F204
:100790002102964210D02FE00022C1F2220296429E
:1007A0000AD00022C1F23102964205D00022C1F2E5
:1007B0003202964220D100BF8A684AB1012A14BF92
:1007C000C0F814B0C0F810B04FF0080914E000BF32
:1007D0004FF0040910E000BFCA6802F104090BE001
:1007E0004FF0000908E000BFCA6802F1080903E001
:1007F000CA6802F10C0900BF02462646B8F5807FA0
:1008000024BF0432203E17680F25B54027EA0505AE
:1008100009FA06F635431560CA79D2067FF582AF2C
:1008200041F21803C4F202031A68AEF57E7642F074
:1008300001021A601A6802F001020192019A2AF07C
:10084000030256F802B040F60002C4F201029042E0
:1008500008D040F60042C4F2010290427FF420AF7B
:10086000012725E7002723E702B0BDE8F08F00004D
:10087000002A08BF090401617047000040F22420EB
:10088000C2F200000068704740F2000040F22421EC
:10089000C2F20000C2F2000100780A681044086049
:1008A0007047000080B542F20000C4F20200016807
:1008B00041F010010160032000F08CF80F2000F0DF
:1008C00005F800F027F8002080BD000070B540F268
:1008D0000006C2F2000640F208013278C2F20001BE
:1008E0004FF47A730968B3FBF2F20446B1FBF2F1FC
:1008F000084600F085FB0F2C4FF0010508D838B9E9
:100900004FF0FF3021460022002500F037F87460D8
:10091000284670BD82B041F21800C4F2020001689E
:10092000022241F001010160016801F00101019121
:100930000199416841F080514160406800F0805069
:10094000009000980420C4F20100016862F31A616B
:10095000016002B070470000002848BF704700F0F7
:100960001F01012202FA01F11C2202EAD0004EF21C
:100970000012CEF2000281507047000010B54EF612
:100980000C5CCEF2000CDCF80030C3F3022E8EF0CB
:100990000704042C28BF0424BEF103034FF0FF3EDC
:1009A0000EFA04F438BF0023A14399400EFA03F372
:1009B0009A43114300F00F0200F160430901043A29
:1009C00003F564436244002848BF02F10C03197028
:1009D00010BD00004EF60C51CEF200010A684FF631
:1009E000FF031A4060F30A2242F0806040F0FD707D
:1009F00008607047002804BF012070472DE9F043CC
:100A000081B042F20008C4F202080446D8F800009F
:100A10000D4600F0070088420CD2D8F8000020F004
:100A200007002843C8F80000D8F8000000F00700CD
:100A3000A8426CD1206841F204098107C4F202097E
:100A400017D5410705D5D9F8001041F4E061C9F880
:100A50000010010705D5D9F8001041F46051C9F81C
:100A60000010D9F80010A26821F0F0011143C9F874
:100A70000010C00742D1D8F8000000F00700A842DB
:100A80000CD9D8F8000020F007002843C8F800006F
:100A9000D8F8000000F00700A84238D120684107CC
:100AA00007D5D9F80010E26821F4E0611143C9F8D4
:100AB0000010000708D5D9F80000216920F4605023
:100AC00040EAC100C9F80000D9F8002002F00C008B
:100AD000082841F20020C0F27A004DD143F2A01361
:100AE000C2F38341C0F60003595CD20338D440F608
:100AF0000010C0F23D0048433EE000BF606859F876
:100B0000041C022808D0012826D1890306D401201C
:100B100001B0BDE8F08300BF8901F8D5D9F8001015
:100B200021F003010843C9F80000FFF7A7FE0646BD
:100B300041F28837D9F80000616800F00C00B0EB92
:100B4000810F98D0FFF79AFE801BB842F2D903209C
:100B500001B0BDE8F08300BF8907D8D5DEE700BF4C
:100B6000D9F8002043F29E13C2F34042C0F60003BE
:100B70009A5C4843B0FBF2F0D9F8001043F28612B9
:100B8000C1F30311C0F60002515C40F2080220FAE2
:100B900001F140F20400C2F200000068C2F200025B
:100BA0001160FFF793FE002001B0BDE8F083000064
:100BB00040F2080041F20401C2F20000C4F2020156
:100BC0000068096843F29612C1F30221C0F60002E0
:100BD000515CC8407047000040F2080041F2040137
:100BE000C2F20000C4F202010068096843F29612E2
:100BF000C1F3C221C0F60002515CC840704700003A
:100C0000002804BF012070472DE9F04182B004465E
:100C1000007841F20006C007C4F202060CD07068EA
:100C200000F00C00042840F081803068800303D578
:100C30006068002800F04681207880071BD5706826
:100C400010F00C0F09D0706800F00C00082840F07C
:100C500087807068C00300F183803068800703D507
:100C60002069012840F02E813068616920F0F80089
:100C700040EAC10030602078000713D42078400794
:100C80002CD4E569002D00F01881706800F00C008C
:100C9000082840F0A780012D40F00481012002B017
:100CA000BDE8F081A069002800F084800020C4F233
:100CB00042200121C0F88014FFF7E0FD054600BF87
:100CC000706A800700F1B280FFF7D8FD401B022850
:100CD000F6D9032002B0BDE8F08100BFF0695FEAF9
:100CE000C00808D4F06940F08050F061F06900F06D
:100CF00080500090009847F20007C4F2000738685F
:100D0000C00549D4386840F480703860FFF7B6FDFC
:100D1000054600BF3868C0053ED4FFF7AFFD401B55
:100D20006428F7D9032002B0BDE8F081706800F0B4
:100D30000C00082803D17068C0033FF576AF6168E6
:100D40003068002900F00C81B1F5A02F00F000817F
:100D5000B1F5803F40F01A8140F480301CE100BFC3
:100D60002069002840F20000C4F2422000F0888090
:100D700001210160FFF782FD054600BF3068800752
:100D80003FF572AFFFF77AFD401B0228F6D903202A
:100D900002B0BDE8F08100BFE168306A002900F0D0
:100DA0009D80052900F09280012940F0AF8040F03D
:100DB0000100B1E00020C4F242200021C0F88014FC
:100DC000FFF75CFD054600BF706A80077FF556AFF0
:100DD000FFF754FD401B0228F6D9032002B0BDE8FE
:100DE000F08100BF0027C4F2422700203866FFF7D9
:100DF00045FD022D05460DD13068800140F1DE80B1
:100E0000FFF73CFD401B02284FF00300F4D902B06D
:100E1000BDE8F081306880014FD5FFF72FFD401B02
:100E200002284FF00300F5D9F1E700BF40F20800B7
:100E3000C2F20000006844F6D351C1F26201A0FB87
:100E40000101480A019000BF00BF0198411E00281F
:100E500001913FF413AF00BF0198411E002801919A
:100E60003FF40CAF00BF0198411E002801913FF4F0
:100E700005AF00BF0198411E00280191E4D1FDE6B5
:100E800000210160FFF7FAFC054600BF30688007CB
:100E90007FF5F1AEFFF7F2FC401B02284FF0030094
:100EA000F4D9B4E77068216A00F480328A4209D12B
:100EB000616A00F47010884204D1002002B0BDE8DD
:100EC000F08100BF012002B0BDE8F08140F00400D5
:100ED0003062306A40F001001EE000BF20F00100E7
:100EE0003062306A20F004003062FFF7C7FC05462C
:100EF00041F28837306A800720D5FFF7BFFC401BDE
:100F0000B8424FF00300F5D981E700BF20F001009F
:100F10003062306A20F004003062FFF7AFFC054613
:100F200041F28837306A800708D4FFF7A7FC401BDE
:100F3000B842F7D9032002B0BDE8F081B8F1000F44
:100F40003FF59FAEF06920F08050F06199E600BF58
:100F500040F480203060306840F480301CE000BFF6
:100F600020F480303060306820F480203060FFF75B
:100F700085FC0546306880037FF55EAEFFF77EFC9A
:100F8000401B64284FF00300F4D940E720F4803080
:100F90003060306820F480203060FFF76FFC054639
:100FA000306880033FF548AEFFF768FC401B6428BB
:100FB000F6D9032002B0BDE8F08100BF206AB0F589
:100FC000803F05D17168A26821F40031114371603E
:100FD0007168626A21F47411114308437060012042
:100FE0003866FFF74BFC0446306880013FF565AF7B
:100FF000FFF744FC001B02284FF00300F4D906E77A
:10100000411E0020B0EB116F1CBF012070474EF253
:101010001002CEF2000251604EF62351CEF20001D2
:10102000F0230B70072190601160704790F83C200E
:10103000012A4FF0020236D010B580F83D20026838
:10104000D2F804E0D2F808C00C682EF070032343F5
:1010500040F2FF74C4F20004A24253600ADCB2F111
:10106000804F13D040F20043C4F200039A420DD0E7
:1010700011E000BF42F60043C4F201039A4205D0DA
:1010800040F60003C4F200039A4204D149682CF0F0
:101090008003194391600121002280F83D1080F8FF
:1010A0003C20BDE81040104670470000002804BFF7
:1010B0000120704710B590F83D1031B9002180F83B
:1010C0003C10044600F070F82046022180F83D10E4
:1010D000016840F2FF740B68C4F2000442F6004C51
:1010E000A142C4F2010C15DCB1F1804F1AD040F2DC
:1010F0000042C4F20002914214D0A14218DCB1F1C6
:10110000804F1DD040F20042C4F20002914217D03D
:101110001AE000BF614505D040F60002C4F20002AB
:101120009142EAD1826823F070031343A142E6DDC5
:10113000614505D040F60002C4F20002914203D19D
:10114000026923F440731343846923F08002D0F8CA
:1011500004E0C368224361450A60CB62C1F828E01D
:1011600002D14269CCF8302001224A610B69DB07C9
:1011700003D00B6923F001030B6180F8462080F84F
:101180003E2080F83F2080F8402080F8412080F801
:10119000422080F8432080F8442080F8452080F8E1
:1011A0003D20002010BD000083B0006840F6000123
:1011B000C4F20001884227D040F20041C4F200018D
:1011C000884211D0B0F1804F2BD141F21C00C4F203
:1011D0000200016841F001010160006800F00100B7
:1011E0000290029803B0704741F21C00C4F2020062
:1011F000016841F002010160006800F00200019006
:10120000019803B0704700BF41F21C00C4F2020015
:10121000016841F004010160006800F004000090E2
:10122000009803B07047000090F83C20012A4FF06E
:1012300002026CD080B580F83D20D0F800C04FF697
:101240007772DCF8083023EA0202CCF808200B6839
:101250004F2B29DC1F2B45DD202B46D0302B44D0D3
:10126000402B40F0AF80D1F804E0C968DCF82030B2
:10127000DCF8202022F00102CCF82020DCF8182035
:1012800022F0F00242EA011123F00A0242EA0E02C1
:10129000CCF81810CCF82020DCF8081041F04701F9
:1012A00021F0300128E000BF6F2B33DDB3F5005F84
:1012B00074D0B3F5805F21D0702B40F08380D1E9EA
:1012C00001E3C968DCF8082043EA0E0322F47F42F8
:1012D00043EA01211143CCF80810DCF8081041F072
:1012E000770109E00BB1102B6CD1DCF8081021F06C
:1012F0007001194341F00701CCF8081000220121C8
:1013000080F83D10002180F83C10BDE88040104678
:10131000704700BF502B21D0602B53D1D1F804E08F
:10132000C968DCF82030DCF8202022F01002CCF86C
:101330002020DCF8182022F4704242EA013123F028
:10134000A00242EA0E12CCF81810CCF82020DCF8EB
:10135000081041F0670121F01001CDE7D1F804E059
:10136000C968DCF82030DCF8202022F00102CCF83B
:101370002020DCF8182022F0F00242EA011123F0CC
:101380000A0242EA0E02CCF81810CCF82020DCF851
:10139000081041F0570121F02001ADE7D1E901E348
:1013A000C968DCF8082043EA0E0322F47F4243EACE
:1013B00001211143CCF80810DCF8081041F48041F9
:1013C0009AE700BF01229AE790F83C30012B04BF56
:1013D000022070474FEAB202032A00F2F1802DE9A1
:1013E000F043DFE802F003A53B7500BF036842F657
:1013F00000461D6A1A6AC4F2010622F001021A624E
:101400001A465C6852F818CFB3428E68D1F800E0F3
:1014100025F0020545EA06050CD1CE68D1E905782C
:1014200024F4407425F00C0526F004063C433543B3
:1014300044EA08042CF0730747EA0E075C609F61DA
:101440004F6809695F631D629F6947F008079F61E4
:101450009F6927F004079F61A6E000BF036842F67A
:1014600000461D6A1A6AC4F2010622F480721A62EA
:101470001A46D3F804C052F81CEFB3428E680C68C9
:1014800025F4007545EA06250FD1CE68D1E9059807
:10149000360240F2FF4725F44065BE4335432CF445
:1014A000405748EA090647EA061C2EF0730727430F
:1014B000C3F804C0DF614F680969DF631D62DF693B
:1014C00047F00807DF61DF6927F00407DF616BE0A1
:1014D000036842F60047D3F820C01A6AC4F2010735
:1014E00022F480521A621A465C6852F81C5FD1F8E6
:1014F00000E08E68BB4204D14F6924F4804444EA82
:1015000087142CF4005747EA063725F4E64646EAE6
:101510000E265C60DE614E6809691E641F62DF6929
:1015200047F40067DF61DF6927F48067DF613AE035
:10153000036842F600461D6A1A6AC4F2010622F0E8
:1015400010021A621A46D3F804C052F8184FB34278
:101550008E68D1F800E025F0200545EA06150FD188
:10156000CE68D1E905986FF0400725F0C00507EA7D
:10157000061635432CF4406748EA090647EA860C0C
:1015800024F4E64444EA0E27C3F804C09F614F6880
:1015900009699F631D629F6947F400679F619F69A6
:1015A00027F480679F6109021368194311600021C5
:1015B000BDE8F043002280F83C200846704700BF99
:1015C0000121002280F83C2008467047002804BF13
:1015D0000120704710B590F83D1031B9002180F816
:1015E0003C10044600F070F82046022180F83D10BF
:1015F000016840F2FF740B68C4F2000442F6004C2C
:10160000A142C4F2010C15DCB1F1804F1AD040F2B6
:101610000042C4F20002914214D0A14218DCB1F1A0
:10162000804F1DD040F20042C4F20002914217D018
:101630001AE000BF614505D040F60002C4F2000286
:101640009142EAD1826823F070031343A142E6DDA0
:10165000614505D040F60002C4F20002914203D178
:10166000026923F440731343846923F08002D0F8A5
:1016700004E0C368224361450A60CB62C1F828E0F8
:1016800002D14269CCF8302001224A610B69DB07A4
:1016900003D00B6923F001030B6180F8462080F82A
:1016A0003E2080F83F2080F8402080F8412080F8DC
:1016B000422080F8432080F8442080F8452080F8BC
:1016C0003D20002010BD000070470000C1B104297A
:1016D00008D0082914BF41224022825C012A05D08B
:1016E00016E000BF3F22825C012A11D102220829A4
:1016F00010D0042914BF80F8412080F83F200BE06F
:1017000090F83E20012A03D1022280F83E2003E017
:101710000120704780F84020006801F01F0101227D
:10172000036A8A4023EA02010162036A42F64441E5
:10173000C4F201011A43A1F14403984202620FD09E
:1017400040F2FF71C4F20001884213DCB0F1804F17
:101750001CD040F20041C4F20001884216D01CE0C7
:101760000A6842F400420A6040F2FF71C4F20001CC
:101770008842EBDD42F60041C4F20101884205D007
:1017800040F60001C4F20001884206D1816801F0F0
:101790000701062904BF00207047016841F00101DC
:1017A0000160002070470000704700007047000093
:1017B000B0B582B001680A68CC684B6902F02F05A9
:1017C000202D04F0200505D125B102B0BDE8B040C0
:1017D00001F096BB5FEA027C1EBF03F0010E04F429
:1017E000907313EB0E0341D1036BD50618D5012B73
:1017F00016D114F0100313D0002201920A6801924E
:101800004A680192019A496949064BD4818DC28D7B
:10181000C38D002B18BF914240F0F48102B0B0BDDF
:1018200013062DD514F080032AD090F84120212AE8
:10183000F4D18268B2F5805F03D10269002A00F01A
:101840006782026A531C036212784A60C28C013AB2
:101850001304C284E2D1C86820F08000C860C86860
:1018600040F04000C86002B0B0BD00BFD30718BF51
:1018700014F4807340F0D080530700F1D380D8E097
:101880005206CBD514F04002C8D0CA6822F04002FC
:10189000CA60202180F8411002B0BDE8B04000F0DD
:1018A00065BE00BFC16B0A68526893B2002BB5D009
:1018B000858DAB42B2D2C2858969202900F0A18012
:1018C000016851E8031F026821F4807142E80313A4
:1018D000DBB1016851E8031F026821F4807142E81E
:1018E000031393B1016851E8031F026821F480716A
:1018F00042E803134BB1016851E8031F026821F469
:10190000807142E80313002BDAD1016851E8051F0A
:10191000026821F0010142E80513C3B3016851E8F0
:10192000051F026821F0010142E805137BB301683D
:1019300051E8051F026821F0010142E8051333B3A5
:10194000016851E8051F026821F0010142E8051312
:10195000002BDAD11BE000BF016851E8051F0268C7
:1019600021F0400142E80513DBB1016851E8051F91
:10197000026821F0400142E8051393B1016851E883
:10198000051F026821F0400142E805134BB10168D0
:1019900051E8051F026821F0400142E80513002BC1
:1019A000DAD1202180F8421000210163016851E85A
:1019B000031F026821F0100142E80313DBB1016844
:1019C00051E8031F026821F0100142E8031393B1AC
:1019D000016851E8031F026821F0100142E8031377
:1019E0004BB1016851E8031F026821F0100142E881
:1019F0000313002BDAD1C16B04460846FEF74EFCF8
:101A0000204602214163818DC28D891A89B202B0BC
:101A1000BDE8B040FFF7C8BE436C43F00103436428
:101A2000530706D5BEF1000F03D0436C43F0020309
:101A30004364930706D5BEF1000F03D0436C43F017
:101A400004034364BCF1000F06D55EEA050303D02E
:101A5000436C43F008034364436C002B3FF4DEAE59
:101A6000920605D525B1044601F04AFA21682046C0
:101A70004969426C01F0400102F00802891800F047
:101A8000B98000BF016851E8031F026821F490711A
:101A900042E80313BBB3016851E8031F026821F455
:101AA000907142E8031373B3016851E8031F0268A1
:101AB00021F4907142E803132BB3016851E8031F2E
:101AC000026821F4907142E80313002BDAD11AE086
:101AD000016851E8051F026821F0010142E8051381
:101AE000DBB1016851E8051F026821F0010142E8FD
:101AF000051393B1016851E8051F026821F0010147
:101B000042E805134BB1016851E8051F026821F056
:101B1000010142E80513002BDAD1016B012924D120
:101B2000016851E8031F026821F0100142E8031325
:101B3000DBB1016851E8031F026821F0100142E89F
:101B4000031393B1016851E8031F026821F01001EB
:101B500042E803134BB1016851E8031F026821F00A
:101B6000100142E80313002BDAD1202180F8421043
:101B70000021016301684969490640F1C380016899
:101B800051E8051F026821F0400142E80513DBB16E
:101B9000016851E8051F026821F0400142E8051381
:101BA00093B1016851E8051F026821F0400142E845
:101BB00005134BB1016851E8051F026821F040018F
:101BC00042E80513002BDAD1C16B002900F09A809E
:101BD00042F64932C0F60002044608464A63FEF760
:101BE00081FB00283FF41AAEE06B416B02B0BDE808
:101BF000B04008470446FFF7D9FD0020606402B0FA
:101C0000B0BD00BF891A00BF026852E8032F036805
:101C100022F4907243E80325BDB3026852E8032F13
:101C2000036822F4907243E8032575B3026852E812
:101C3000032F036822F4907243E803252DB3026852
:101C400052E8032F036822F4907243E80325002D25
:101C5000DAD11AE0026852E8052F036822F0010287
:101C600043E80525DDB1026852E8052F036822F03C
:101C7000010243E8052595B1026852E8052F036883
:101C800022F0010243E805254DB1026852E8052F14
:101C9000036822F0010243E80525002DDAD1202255
:101CA00080F8422000220263026852E8032F036892
:101CB00022F0100243E80325DDB1026852E8032F49
:101CC000036822F0100243E8032595B1026852E848
:101CD000032F036822F0100243E803254DB1026888
:101CE00052E8032F036822F0100243E80325002D79
:101CF000DAD1022289B2426302B0BDE8B040FFF7F8
:101D000053BD00BF02B0BDE8B040FFF74FBD00BFFC
:101D1000026A32F8023B6FF35F234B60026295E583
:101D2000002804BF0120704710B5044690F8410018
:101D300028B9002084F84000204600F063F82420F1
:101D400084F841002068D4E90212C36823F40053E8
:101D5000C360036923F440531A430261D4E90423A6
:101D60001143C268194341F20C639A431143C160A5
:101D70004169A26921F44071114343F60002C4F2A3
:101D800001029042416103D0FEF712FF02E000BF62
:101D9000FEF722FFD4E90023192148439900B0FB44
:101DA000F1F048F21F5CC5F2EB1CA0FB0C314FF6C2
:101DB0009C734909C0F6FF7301FB0300322303EB58
:101DC0000010A0FB0C03F02000EA531000EB011000
:101DD000C3F34311084490601069202120F490401F
:101DE0001061506920F02A005061D06840F4005022
:101DF000D0600020606484F8411084F84210606371
:101E000010BD00002DE9F04186B040F60005044603
:101E1000C4F20105006805F5405100278842059786
:101E2000CDE90377029703D006B0BDE8F08100BF8B
:101E300041F21800C4F20200016802AE41F4804190
:101E40000160016840F2440801F480410191019968
:101E50000168C4F2020841F00401016000683146E3
:101E600000F00400019001984FF4007002900220ED
:101E70000390032005902846FEF7F2FB4FF48060A4
:101E8000CDE90207284631460497FEF7E9FB40F208
:101E90007C0508F11400C2F200058026C5E90007A0
:101EA0002846C5E90276C5E90477C5E90677FEF755
:101EB00045FB002818BFFEF7EBF9E5636C6240F2C2
:101EC000C005C2F2000510200021C5E900802846A7
:101ED000C5E90216C5E90411C5E90611FEF72EFB96
:101EE000002818BFFEF7D4F9252005210022A5639C
:101EF0006C62FEF743FD2520FEF72EFD06B0BDE81F
:101F0000F081000090F84230202B0BD194460A4615
:101F100000294FF0010118BFBCF1000F06D108469F
:101F2000704700BF02210846704700BF70B582B0FD
:101F30000025222105638262A0F82CC0456480F848
:101F400042100168C36B42F6D14442F6316E42F64C
:101F50005536C0F60004C0F6000EC0F60006C3E910
:101F60000A4EC3E90C650431044618466346FEF781
:101F700027FB0195216820460A6801924968019172
:101F80000199216931B300BF016851E8031F02685C
:101F900041F4807142E80313E3B1016851E8031F83
:101FA000026841F4807142E803139BB1016851E873
:101FB000031F026841F4807142E8031353B10168C2
:101FC00051E8031F026841F4807142E80313002BBB
:101FD000DAD100BF016851E8051F026841F0010134
:101FE00042E80513BBB3016851E8051F026841F0E0
:101FF000010142E8051373B3016851E8051F026847
:1020000041F0010142E805132BB3016851E8051FB7
:10201000026841F0010142E80513002BDAD11AE011
:10202000016851E8051F026841F0400142E80513CC
:10203000DBB1016851E8051F026841F0400142E848
:10204000051393B1016851E8051F026841F0400192
:1020500042E805134BB1016851E8051F026841F0E1
:10206000400142E80513002BDAD1002002B070BD18
:1020700040F2DC11C2F20001884218BF70472DE91E
:10208000F04381B040F27004C2F2000404F102088F
:1020900040F2DC1040F60049C2F20000414607223F
:1020A000C4F2010900F000FA6079A2796427E379AB
:1020B000784302EB8202A17800EB4200184441F21F
:1020C000D042801A3129208024D182B2B42A21D86A
:1020D0004FF4FA6042F6835302FB00F1C0F2D823BA
:1020E000A1FB0313C2F1B401484346F6174180082F
:1020F000C1F2C16140F20412A0FB0101C2F2000270
:102100004FF4FA70126800EB530300EB9100536335
:1021100090632DE0332917D0322940F04F8180B2EF
:102120004FF4FA61484342F68351C0F2D821A0FB34
:10213000010140F20410C2F2000000684FF4FA728C
:1021400002EB5101C16313E080B24FF4FA614843DE
:1021500042F68351C0F2D821A0FB010140F20410E5
:10216000C2F2000000684FF4FA7202EB5101016400
:10217000227AE0782179312A08BF302844D13129E8
:1021800042D140F24C122088C2F200026FF063018B
:10219000126801EB40015163916340F29411C2F265
:1021A0000001096840004863886348460121012214
:1021B000FEF75EFB484602210022FEF759FB484627
:1021C0004FF400610122FEF753FB48464FF4806153
:1021D0000022FEF74DFB484608210122FEF748FB8E
:1021E000484610210022FEF743FB48464FF4807119
:1021F0000122FEF73DFB48464FF400710022FEF736
:1022000037FBE0782179227A322A08BF302844D17E
:10221000312942D140F24C112088C2F200010968F4
:1022200042004A638A6340F29412C2F200026FF0E5
:102230006301126801EB400050639063484601213E
:102240000122FEF715FB484602210022FEF710FB93
:1022500048464FF400610122FEF70AFB48464FF45E
:1022600080610022FEF704FB484608210122FEF7A8
:10227000FFFA484610210022FEF7FAFA48464FF4CA
:1022800080710122FEF7F4FA48464FF400710022F3
:10229000FEF7EEFAE0782179227AA3786779A679B9
:1022A000E579302808BF30294BD1302B49D1302F68
:1022B00047D1302E45D1302D43D1302A41D140F283
:1022C0004C10C2F20000006800214163816340F2BB
:1022D0009410C2F200000068002241638163484606
:1022E0000121FEF7C5FA484602210022FEF7C0FA96
:1022F00048464FF400610022FEF7BAFA48464FF410
:1023000080610022FEF7B4FA484608210022FEF759
:10231000AFFA484610210022FEF7AAFA48464FF4C9
:1023200080710022FEF7A4FA48464FF400710022A3
:10233000FEF79EFAA378E07821796779A679E579A6
:10234000227A342808BF342917D1342B15D1342FE1
:1023500013D1342E11D1342D0FD1342A0DD1A9F53A
:1023600080604FF480710122FEF782FAA378E07852
:1023700021796779A679E579227A352808BF352948
:1023800010D1352B0ED1352F0CD1352E0AD1352D4C
:1023900008D1352A06D1A9F580604FF4807100225A
:1023A000FEF766FA40F2DC10C2F200004146072256
:1023B00001B0BDE8F043FFF7A5BD00BF30297FF4B1
:1023C000D7AE217A30297FF4D3AEE17831293FF4BA
:1023D000CFAE4FF6FE722179C0F2010202EA400050
:1023E00040F24C12B1F13106A1F13101C2F200020A
:1023F00018BF0126B1FA81F112684F09506390634A
:10240000484601213A46FEF733FA48460221324651
:10241000FEF72EFA48464FF400613A46FEF728FAD6
:1024200048464FF480613246FEF722FAE0783128C0
:102430003FF49EAE40F294122188C2F2000220794D
:102440001268490051633128916348464FF00801F2
:1024500012D10122FEF70CFA484610210022FEF7A5
:1024600007FA48464FF480710122FEF701FA484608
:102470004FF40071002211E00022FEF7F9F94846FE
:1024800010210122FEF7F4F948464FF48071002232
:10249000FEF7EEF948464FF400710122FEF7E8F925
:1024A00066E600007047000090F84130202B09D10B
:1024B000944600294FF0010218BFBCF1000F05D16E
:1024C0001046704702221046704700BF70B50022C8
:1024D00021230162A0F824C0A0F826C0426480F83D
:1024E00041300468836B42F6496E42F6F96542F664
:1024F0005536C0F6000EC0F60005C0F60006C3E96A
:102500000AE5C3E90C62221D044618466346FEF73D
:1025100057F8216820466FF040020A60016851E8D0
:10252000051F026841F0800142E80513DBB1016834
:1025300051E8051F026841F0800142E8051393B19C
:10254000016851E8051F026841F0800142E8051367
:102550004BB1016851E8051F026841F0800142E873
:102560000513002BDAD1002070BD00007047000079
:1025700070470000FEE7000080B582B041F2140011
:10258000C4F202000168002241F00101016000680C
:10259000062100F00100019001980E20FEF7EEF9EF
:1025A0000E20FEF7D9F90F2006210022FEF7E6F9EA
:1025B0000F2002B0BDE88040FEF7CEB92DE9F0470C
:1025C00086B0002741F21800CDE90477CDE9027703
:1025D000C4F20200016840F6000941F020010160E8
:1025E0000168C4F2010901F020010191019901681B
:1025F00009F5806541F0040101600168002201F0E5
:10260000040101910199016848F61B7641F0080127
:102610000160006848F61B7100F008000190019805
:102620002846FEF725F948464FF4807100224FF402
:102630008078FEF71DF9029602AE4FF0010A0224DF
:1026400028463146CDE903A70594FEF709F8484628
:102650003146CDE9028ACDE90474FEF701F806B0EF
:10266000BDE8F08710B594B040F204100021C2F22A
:1026700000004FF08042472344F61F640E91CDE9DD
:102680000C110991CDE90711CDE90511CDE903112F
:10269000CDE90111C0E90023C0E9021401618161A3
:1026A000FEF704FD002818BFFDF7F2FD4FF480503F
:1026B0000B9040F20410C2F200000BA9FEF7B4FD2B
:1026C000002818BFFDF7E4FD40F20410C2F200003C
:1026D000FEF77CFF002818BFFDF7DAFD40F204107A
:1026E0000024C2F2000008A9CDE90844FEF79EFCD0
:1026F000002818BFFDF7CCFD602001900F20CDE928
:10270000020440F20410C2F2000001A90022059464
:10271000FEF75AFE002818BFFDF7BAFD40F204107C
:10272000C2F2000001A90422FEF74EFE002818BFE5
:10273000FDF7AEFD40F20410C2F2000001A908222C
:10274000FEF742FE002818BFFDF7A2FD40F2041478
:10275000C2F2000401A920460C22FEF735FE002833
:1027600018BFFDF795FD206840F60001C4F2000196
:1027700088424FF00001CDE91211CDE910112BD0A4
:1027800040F20041C4F20001884211D0B0F1804F04
:102790003DD141F21800C4F20200016841F0040189
:1027A0000160006800F004000F900F980F200DE00A
:1027B00041F21800C4F20200016841F00401016016
:1027C000006800F004000F900F98C020109040F6B1
:1027D0000000C4F2010014E041F21800C4F202004B
:1027E000016841F008010160006800F008000F90E6
:1027F0000F98C020109040F60000C4F2010000F5D0
:10280000806002211191139110A9FDF729FF14B0E6
:1028100010BD0000B0B594B040F60004C4F201044D
:1028200040F24C100021A4F58232C2F2000047238E
:10283000C7250E91CDE90C110991CDE90711CDE91C
:102840000511CDE90311CDE90111C0E90023C0E96B
:10285000021501618161FEF729FC002818BFFDF710
:1028600017FD4FF480500B9040F24C10C2F2000064
:102870000BA9FEF7D9FC002818BFFDF709FD40F2AF
:102880004C10C2F20000FEF7A1FE002818BFFDF7B1
:10289000FFFC40F24C100025C2F2000008A9CDE96F
:1028A0000855FEF7C3FB002818BFFDF7F1FC6020B8
:1028B00001900F20CDE9020540F24C10C2F2000059
:1028C00001A900220595FEF77FFD002818BFFDF73E
:1028D000DFFC40F24C15C2F2000501A92846042293
:1028E000FEF772FD002818BFFDF7D2FC286840F6FD
:1028F0000001C4F2000188424FF00001CDE912113D
:10290000CDE9101124D040F20041C4F20001884208
:1029100012D0B0F1804F33D141F21800C4F202005E
:10292000016841F004010160006800F004000F90AC
:102930000F980F201CE000BF41F21800C4F2020003
:10294000016841F004010160006800F004000CE03F
:1029500041F21800C4F20200016804F5806441F0FD
:1029600008010160006800F008000F900F98C02077
:10297000109002201190139010A92046FDF770FED0
:1029800014B0B0BDB0B594B040F60004C4F2010478
:1029900040F294100021A4F58032C2F200004723D7
:1029A000C7250E91CDE90C110991CDE90711CDE9AB
:1029B0000511CDE90311CDE90111C0E90023C0E9FA
:1029C000021501618161FEF771FB002818BFFDF758
:1029D0005FFC4FF480500B9040F29410C2F2000064
:1029E0000BA9FEF721FC002818BFFDF751FC40F2AF
:1029F0009410C2F20000FEF7E9FD002818BFFDF7B1
:102A000047FC40F294100025C2F2000008A9CDE96D
:102A10000855FEF70BFB002818BFFDF739FC6020B6
:102A200001900F20CDE9020540F29410C2F200009F
:102A300001A900220595FEF7C7FC002818BFFDF785
:102A400027FC40F29415C2F2000501A92846042291
:102A5000FEF7BAFC002818BFFDF71AFC286840F6FC
:102A60000001C4F2000188424FF00001CDE91211CB
:102A7000CDE9101124D040F20041C4F20001884297
:102A800012D0B0F1804F33D141F21800C4F20200ED
:102A9000016841F004010160006800F004000F903B
:102AA0000F980F201CE000BF41F21800C4F2020092
:102AB000016841F004010160006800F004000CE0CE
:102AC00041F21800C4F20200016804F5806441F08C
:102AD00008010160006800F008000F900F98C02006
:102AE000109002201190139010A92046FDF7B8FD18
:102AF00014B0B0BD80B540F2DC1043F60001C2F264
:102B00000000C4F2010100234FF00C0C4FF41652E8
:102B100080E80E00C0E90333C0E905C3C361FFF7D5
:102B2000FFF8002808BF80BDBDE88040FDF7B0BBBE
:102B3000FEE70000FEE7000070470000704700005D
:102B4000FDF7A2BE70470000406A0021C185C18424
:102B5000FEF72CBE406A01684A6990F84130212B8B
:102B60002DD112F080022AD00021C184016851E8E1
:102B7000031F026821F0C00142E80313DBB10168C2
:102B800051E8031F026821F0C00142E8031393B12A
:102B9000016851E8031F026821F0C00142E80313F5
:102BA0004BB1016851E8031F026821F0C00142E8FF
:102BB0000313002BDAD1202180F841100168496904
:102BC00090F84220222A40F07D8011F0400179D017
:102BD0000021C185016851E8031F026821F490714A
:102BE00042E80313BBB3016851E8031F026821F4F4
:102BF000907142E8031373B3016851E8031F026840
:102C000021F4907142E803132BB3016851E8031FCC
:102C1000026821F4907142E80313002BDAD11AE024
:102C2000016851E8051F026821F0010142E805131F
:102C3000DBB1016851E8051F026821F0010142E89B
:102C4000051393B1016851E8051F026821F00101E5
:102C500042E805134BB1016851E8051F026821F0F5
:102C6000010142E80513002BDAD1016B012924D1BF
:102C7000016851E8031F026821F0100142E80313C4
:102C8000DBB1016851E8031F026821F0100142E83E
:102C9000031393B1016851E8031F026821F010018A
:102CA00042E803134BB1016851E8031F026821F0A9
:102CB000100142E80313002BDAD1202180F84210E2
:102CC00000210163416C41F010014164FEF76EBDCB
:102CD0000168406A0968890600F19F800021C1856A
:102CE000016851E8031F026821F4807142E8031370
:102CF000E3B1016851E8031F026821F4807142E8E2
:102D000003139BB1016851E8031F026821F480712D
:102D100042E8031353B1016851E8031F026821F42C
:102D2000807142E80313002BDAD100BF016851E83B
:102D3000051F026821F0010142E80513BBB30168D9
:102D400051E8051F026821F0010142E8051373B341
:102D5000016851E8051F026821F0010142E80513EE
:102D60002BB3016851E8051F026821F0010142E818
:102D70000513002BDAD11AE0016851E8051F02683B
:102D800021F0400142E80513DBB1016851E8051F5D
:102D9000026821F0400142E8051393B1016851E84F
:102DA000051F026821F0400142E805134BB101689C
:102DB00051E8051F026821F0400142E80513002B8D
:102DC000DAD1202180F84210016B012925D100BF02
:102DD000016851E8031F026821F0100142E8031363
:102DE000DBB1016851E8031F026821F0100142E8DD
:102DF000031393B1016851E8031F026821F0100129
:102E000042E803134BB1016851E8031F026821F047
:102E1000100142E80313002BDAD100214163016B5A
:102E2000012918BFFFF724B9818DFEF7BDBC000052
:102E3000406A01214163016B012918BFFFF732BBD2
:102E4000818D4908FEF7B0BC0168406A09688906AF
:102E500048BFFFF78BBB0021C18400BF016851E868
:102E6000051F026821F0800142E8051383B3016861
:102E700051E8051F026821F0800142E805133BB3C9
:102E8000016851E8051F026821F0800142E805133E
:102E9000F3B1016851E8051F026821F0800142E8A2
:102EA0000513002BDAD113E0016851E8031F026813
:102EB00041F0400142E80313002B08BF704701684E
:102EC00051E8031F026841F0400142E8031393B147
:102ED000016851E8031F026841F0400142E8031312
:102EE0004BB1016851E8031F026841F0400142E81C
:102EF0000313002BD8D17047406AFFF739BB00009D
:102F000081B090F84210222921D183680246B3F59E
:102F1000805F09D152F8281F52F8183C002B63D06B
:102F200003685B680AE000BF52F8281F13B9036901
:102F3000002BF5D003685B6803F07F030B7011680A
:102F400001311160C18D01390A04C18502D001B07F
:102F5000704700BF0168CA6822F02002CA60CA68D0
:102F600022F48072CA604A6922F001024A6120217B
:102F700080F8421000214163026B012A3CD10163B9
:102F8000016851E8031F026821F0100142E80313B1
:102F9000DBB1016851E8031F026821F0100142E82B
:102FA000031393B1016851E8031F026821F0100177
:102FB00042E803134BB1016851E8031F026821F096
:102FC000100142E80313002BDAD101680A68D20627
:102FD00006D5002200920A68009249680091009983
:102FE000818D01B0FEF7E0BB026852686FF35F228B
:102FF00021F8022B8162A5E701B0FFF739B8000084
:1030000040F2DC10C2F20000FEF7D2BBFEE7000087
:1030100090B0FDF747FC00240120CDE90B44CDE939
:10302000094406900A904FF4E0104FF480310225D5
:103030000F9006A8CDE90714CDE90D51FDF7E0FD8D
:1030400020B1EFF3108072B6FEE700BF0F20CDE98C
:1030500001054FF48060CDE9040401A80221039426
:10306000FDF7C8FC20B1EFF3108072B6FEE700BF99
:10307000FFF7A4FAFFF780FAFFF7F4FAFFF7CAFBAD
:10308000FFF738FDFFF77EFC40F20414C2F20004A3
:10309000204600210027FEF719FB20460421FEF7F9
:1030A00015FB20460821FEF711FB20460C21FEF7F8
:1030B0000DFB40F29415C2F2000528460021FEF7F0
:1030C00005FB28460421FEF701FB40F24C16C2F234
:1030D000000630460021FEF7F9FA30460421FEF7DB
:1030E000F5FA206840F2DC5141638163C1630164F9
:1030F000306840F60044476387632868C4F20104DF
:1031000047638763A4F580604FF480710022FDF768
:10311000AFFB204601210022FDF7AAFB2046022139
:103120000022FDF7A5FB20464FF400610022FDF7C9
:103130009FFB20464FF480610022FDF799FB20465B
:1031400008210022FDF794FB204610210022FDF704
:103150008FFB20464FF480710022FDF789FB20464B
:103160004FF400710022FDF783FB40F27000C2F2C1
:103170000000811C40F2DC10C2F200000722FEF7C2
:10318000C1FE00BFFEE700000000000000000102D9
:1031900003040607080900000000010203040102FD
:1031A00002030405060708090A0B0C0D0E0F101088
:1031B000D03100080000002010000000500100087D
:1031C000E03100081000002018080000700100081D
:1031D000010000001000000000127A000000000052
:04000005080000ED02
:00000001FF
